{
    "contractName": "ConsentContract",
    "abi": [
        {
            "inputs": [],
            "stateMutability": "nonpayable",
            "type": "constructor"
        },
        {
            "inputs": [
                {
                    "internalType": "address",
                    "name": "owner",
                    "type": "address"
                }
            ],
            "name": "OwnableInvalidOwner",
            "type": "error"
        },
        {
            "inputs": [
                {
                    "internalType": "address",
                    "name": "account",
                    "type": "address"
                }
            ],
            "name": "OwnableUnauthorizedAccount",
            "type": "error"
        },
        {
            "anonymous": false,
            "inputs": [
                {
                    "indexed": true,
                    "internalType": "uint256",
                    "name": "consentId",
                    "type": "uint256"
                },
                {
                    "indexed": true,
                    "internalType": "address",
                    "name": "firstParty",
                    "type": "address"
                },
                {
                    "indexed": true,
                    "internalType": "address",
                    "name": "secondParty",
                    "type": "address"
                },
                {
                    "indexed": false,
                    "internalType": "string",
                    "name": "data",
                    "type": "string"
                }
            ],
            "name": "ConsentInitiated",
            "type": "event"
        },
        {
            "anonymous": false,
            "inputs": [
                {
                    "indexed": true,
                    "internalType": "uint256",
                    "name": "consentId",
                    "type": "uint256"
                },
                {
                    "indexed": true,
                    "internalType": "address",
                    "name": "responder",
                    "type": "address"
                },
                {
                    "indexed": false,
                    "internalType": "bool",
                    "name": "isAccepted",
                    "type": "bool"
                }
            ],
            "name": "ConsentResponded",
            "type": "event"
        },
        {
            "anonymous": false,
            "inputs": [
                {
                    "indexed": true,
                    "internalType": "address",
                    "name": "previousOwner",
                    "type": "address"
                },
                {
                    "indexed": true,
                    "internalType": "address",
                    "name": "newOwner",
                    "type": "address"
                }
            ],
            "name": "OwnershipTransferred",
            "type": "event"
        },
        {
            "inputs": [
                {
                    "internalType": "address",
                    "name": "admin",
                    "type": "address"
                }
            ],
            "name": "addAdmin",
            "outputs": [],
            "stateMutability": "nonpayable",
            "type": "function"
        },
        {
            "inputs": [
                {
                    "internalType": "uint256",
                    "name": "",
                    "type": "uint256"
                }
            ],
            "name": "consents",
            "outputs": [
                {
                    "internalType": "string",
                    "name": "data",
                    "type": "string"
                },
                {
                    "internalType": "address",
                    "name": "firstParty",
                    "type": "address"
                },
                {
                    "internalType": "address",
                    "name": "secondParty",
                    "type": "address"
                },
                {
                    "internalType": "bool",
                    "name": "isAccepted",
                    "type": "bool"
                }
            ],
            "stateMutability": "view",
            "type": "function"
        },
        {
            "inputs": [
                {
                    "internalType": "uint256",
                    "name": "consentId",
                    "type": "uint256"
                }
            ],
            "name": "getConsent",
            "outputs": [
                {
                    "internalType": "string",
                    "name": "",
                    "type": "string"
                },
                {
                    "internalType": "address",
                    "name": "",
                    "type": "address"
                },
                {
                    "internalType": "address",
                    "name": "",
                    "type": "address"
                },
                {
                    "internalType": "bool",
                    "name": "",
                    "type": "bool"
                }
            ],
            "stateMutability": "view",
            "type": "function"
        },
        {
            "inputs": [
                {
                    "internalType": "address",
                    "name": "firstParty",
                    "type": "address"
                },
                {
                    "internalType": "address",
                    "name": "secondParty",
                    "type": "address"
                },
                {
                    "internalType": "string",
                    "name": "data",
                    "type": "string"
                }
            ],
            "name": "initiateConsent",
            "outputs": [],
            "stateMutability": "nonpayable",
            "type": "function"
        },
        {
            "inputs": [
                {
                    "internalType": "address",
                    "name": "",
                    "type": "address"
                }
            ],
            "name": "isAdmin",
            "outputs": [
                {
                    "internalType": "bool",
                    "name": "",
                    "type": "bool"
                }
            ],
            "stateMutability": "view",
            "type": "function"
        },
        {
            "inputs": [],
            "name": "owner",
            "outputs": [
                {
                    "internalType": "address",
                    "name": "",
                    "type": "address"
                }
            ],
            "stateMutability": "view",
            "type": "function"
        },
        {
            "inputs": [
                {
                    "internalType": "address",
                    "name": "admin",
                    "type": "address"
                }
            ],
            "name": "removeAdmin",
            "outputs": [],
            "stateMutability": "nonpayable",
            "type": "function"
        },
        {
            "inputs": [],
            "name": "renounceOwnership",
            "outputs": [],
            "stateMutability": "nonpayable",
            "type": "function"
        },
        {
            "inputs": [
                {
                    "internalType": "uint256",
                    "name": "consentId",
                    "type": "uint256"
                },
                {
                    "internalType": "bool",
                    "name": "isAccepted",
                    "type": "bool"
                }
            ],
            "name": "respondToConsent",
            "outputs": [],
            "stateMutability": "nonpayable",
            "type": "function"
        },
        {
            "inputs": [
                {
                    "internalType": "address",
                    "name": "newOwner",
                    "type": "address"
                }
            ],
            "name": "transferOwnership",
            "outputs": [],
            "stateMutability": "nonpayable",
            "type": "function"
        }
    ],
    "bytecode": "608060405234801561000f575f80fd5b50338061003557604051631e4fbdf760e01b81525f600482015260240160405180910390fd5b61003e8161005d565b50335f908152600260205260409020805460ff191660011790556100ac565b5f80546001600160a01b038381166001600160a01b0319831681178455604051919092169283917f8be0079c531659141344cd1fd0a4f28419497f9722a3daafe3b4186f6b6457e09190a35050565b610b9b806100b95f395ff3fe608060405234801561000f575f80fd5b506004361061009b575f3560e01c80637a0e09aa116100635780637a0e09aa146101195780638da5cb5b1461013c578063c96f7f7314610156578063d557d53a14610169578063f2fde38b1461017c575f80fd5b80631785f53c1461009f57806323ba8d05146100b457806324d7806c146100c757806370480275146100fe578063715018a614610111575b5f80fd5b6100b26100ad366004610838565b61018f565b005b6100b26100c2366004610858565b6101b7565b6100e96100d5366004610838565b60026020525f908152604090205460ff1681565b60405190151581526020015b60405180910390f35b6100b261010c366004610838565b6102f5565b6100b2610320565b61012c61012736600461088a565b610333565b6040516100f594939291906108e4565b5f546040516001600160a01b0390911681526020016100f5565b6100b2610164366004610932565b610468565b61012c61017736600461088a565b610691565b6100b261018a366004610838565b610765565b6101976107a2565b6001600160a01b03165f908152600260205260409020805460ff19169055565b60015482106102025760405162461bcd60e51b8152602060048201526012602482015271125b9d985b1a590818dbdb9cd95b9d08125160721b60448201526064015b60405180910390fd5b5f60018381548110610216576102166109fd565b5f918252602090912060039091020160028101549091506001600160a01b031633146102955760405162461bcd60e51b815260206004820152602860248201527f4f6e6c79207365636f6e642070617274792063616e20726573706f6e6420746f6044820152670818dbdb9cd95b9d60c21b60648201526084016101f9565b600281018054831515600160a01b0260ff60a01b19909116179055604051339084907f2b706e1a81dc946dbae5fa399943a10b6883be03353012f92c13feaa718b36ee906102e890861515815260200190565b60405180910390a3505050565b6102fd6107a2565b6001600160a01b03165f908152600260205260409020805460ff19166001179055565b6103286107a2565b6103315f6107ce565b565b60605f805f60018054905085106103815760405162461bcd60e51b8152602060048201526012602482015271125b9d985b1a590818dbdb9cd95b9d08125160721b60448201526064016101f9565b5f60018681548110610395576103956109fd565b5f918252602090912060039091020160018101546002820154825492935083926001600160a01b0392831692821691600160a01b900460ff169084906103da90610a11565b80601f016020809104026020016040519081016040528092919081815260200182805461040690610a11565b80156104515780601f1061042857610100808354040283529160200191610451565b820191905f5260205f20905b81548152906001019060200180831161043457829003601f168201915b505050505093509450945094509450509193509193565b335f9081526002602052604090205460ff166104d15760405162461bcd60e51b815260206004820152602260248201527f4f6e6c792061646d696e2063616e20706572666f726d2074686973206163746960448201526137b760f11b60648201526084016101f9565b6001600160a01b0383166105275760405162461bcd60e51b815260206004820152601b60248201527f496e76616c69642066697273742070617274792061646472657373000000000060448201526064016101f9565b6001600160a01b03821661057d5760405162461bcd60e51b815260206004820152601c60248201527f496e76616c6964207365636f6e6420706172747920616464726573730000000060448201526064016101f9565b60018054604080516080810182528481526001600160a01b0380881660208301528616918101919091525f606082018190528284018455929092528151909190600383027fb10e2d527612073b26eecdfd717e6a320cf44b4afac2b0732d9fcbe2b7fa0cf6019081906105f09082610a97565b5060208201516001820180546001600160a01b039283166001600160a01b0319909116179055604080840151600290930180546060909501511515600160a01b026001600160a81b0319909516938316939093179390931790915590518482169186169083907ffa72d4601407b4d123db77cbd393dca187f043ef3e75174feadc5cef94b5ab4190610683908790610b53565b60405180910390a450505050565b600181815481106106a0575f80fd5b905f5260205f2090600302015f91509050805f0180546106bf90610a11565b80601f01602080910402602001604051908101604052809291908181526020018280546106eb90610a11565b80156107365780601f1061070d57610100808354040283529160200191610736565b820191905f5260205f20905b81548152906001019060200180831161071957829003601f168201915b50505050600183015460029093015491926001600160a01b03908116929081169150600160a01b900460ff1684565b61076d6107a2565b6001600160a01b03811661079657604051631e4fbdf760e01b81525f60048201526024016101f9565b61079f816107ce565b50565b5f546001600160a01b031633146103315760405163118cdaa760e01b81523360048201526024016101f9565b5f80546001600160a01b038381166001600160a01b0319831681178455604051919092169283917f8be0079c531659141344cd1fd0a4f28419497f9722a3daafe3b4186f6b6457e09190a35050565b80356001600160a01b0381168114610833575f80fd5b919050565b5f60208284031215610848575f80fd5b6108518261081d565b9392505050565b5f8060408385031215610869575f80fd5b823591506020830135801515811461087f575f80fd5b809150509250929050565b5f6020828403121561089a575f80fd5b5035919050565b5f81518084525f5b818110156108c5576020818501810151868301820152016108a9565b505f602082860101526020601f19601f83011685010191505092915050565b608081525f6108f660808301876108a1565b6001600160a01b03958616602084015293909416604082015290151560609091015292915050565b634e487b7160e01b5f52604160045260245ffd5b5f805f60608486031215610944575f80fd5b61094d8461081d565b925061095b6020850161081d565b9150604084013567ffffffffffffffff80821115610977575f80fd5b818601915086601f83011261098a575f80fd5b81358181111561099c5761099c61091e565b604051601f8201601f19908116603f011681019083821181831017156109c4576109c461091e565b816040528281528960208487010111156109dc575f80fd5b826020860160208301375f6020848301015280955050505050509250925092565b634e487b7160e01b5f52603260045260245ffd5b600181811c90821680610a2557607f821691505b602082108103610a4357634e487b7160e01b5f52602260045260245ffd5b50919050565b601f821115610a92575f81815260208120601f850160051c81016020861015610a6f5750805b601f850160051c820191505b81811015610a8e57828155600101610a7b565b5050505b505050565b815167ffffffffffffffff811115610ab157610ab161091e565b610ac581610abf8454610a11565b84610a49565b602080601f831160018114610af8575f8415610ae15750858301515b5f19600386901b1c1916600185901b178555610a8e565b5f85815260208120601f198616915b82811015610b2657888601518255948401946001909101908401610b07565b5085821015610b4357878501515f19600388901b60f8161c191681555b5050505050600190811b01905550565b602081525f61085160208301846108a156fea26469706673582212201ac4ad5cd689cee542150de38a9384740a571075643d8a15823a3bda59879ef464736f6c63430008140033",
    "sourcePath": "/Users/mustafasiddique/Documents/GitHub/consent-blockchain-contracts/contracts/Consent.sol",
    "compiler": {
        "name": "solc",
        "version": "0.8.20+commit.a1b79de6"
    },
    "functionHashes": {
        "addAdmin(address)": "70480275",
        "consents(uint256)": "d557d53a",
        "getConsent(uint256)": "7a0e09aa",
        "initiateConsent(address,address,string)": "c96f7f73",
        "isAdmin(address)": "24d7806c",
        "owner()": "8da5cb5b",
        "removeAdmin(address)": "1785f53c",
        "renounceOwnership()": "715018a6",
        "respondToConsent(uint256,bool)": "23ba8d05",
        "transferOwnership(address)": "f2fde38b"
    },
    "gasEstimates": {
        "creation": {
            "codeDepositCost": "594200",
            "executionCost": "50776",
            "totalCost": "644976"
        },
        "external": {
            "addAdmin(address)": "26837",
            "consents(uint256)": "infinite",
            "getConsent(uint256)": "infinite",
            "initiateConsent(address,address,string)": "infinite",
            "isAdmin(address)": "2562",
            "owner()": "2321",
            "removeAdmin(address)": "26765",
            "renounceOwnership()": "infinite",
            "respondToConsent(uint256,bool)": "32898",
            "transferOwnership(address)": "28417"
        }
    }
}